{
  "contractName": "Inheritance",
  "abi": [
    {
      "inputs": [],
      "stateMutability": "nonpayable",
      "type": "constructor"
    },
    {
      "anonymous": false,
      "inputs": [
        {
          "indexed": true,
          "internalType": "address",
          "name": "previousOwner",
          "type": "address"
        },
        {
          "indexed": true,
          "internalType": "address",
          "name": "newOwner",
          "type": "address"
        }
      ],
      "name": "NewOwnerProposed",
      "type": "event"
    },
    {
      "anonymous": false,
      "inputs": [
        {
          "indexed": true,
          "internalType": "address",
          "name": "oldOwner",
          "type": "address"
        },
        {
          "indexed": true,
          "internalType": "address",
          "name": "newOwner",
          "type": "address"
        }
      ],
      "name": "OwnershipTransferred",
      "type": "event"
    },
    {
      "anonymous": false,
      "inputs": [
        {
          "indexed": false,
          "internalType": "address",
          "name": "account",
          "type": "address"
        }
      ],
      "name": "Paused",
      "type": "event"
    },
    {
      "anonymous": false,
      "inputs": [
        {
          "indexed": true,
          "internalType": "address",
          "name": "from",
          "type": "address"
        },
        {
          "indexed": true,
          "internalType": "address",
          "name": "to",
          "type": "address"
        },
        {
          "indexed": false,
          "internalType": "uint256",
          "name": "value",
          "type": "uint256"
        }
      ],
      "name": "Transfer",
      "type": "event"
    },
    {
      "anonymous": false,
      "inputs": [
        {
          "indexed": false,
          "internalType": "address",
          "name": "account",
          "type": "address"
        }
      ],
      "name": "Unpaused",
      "type": "event"
    },
    {
      "inputs": [
        {
          "internalType": "uint256",
          "name": "",
          "type": "uint256"
        }
      ],
      "name": "Oracles",
      "outputs": [
        {
          "internalType": "address",
          "name": "account",
          "type": "address"
        },
        {
          "internalType": "uint256",
          "name": "vote",
          "type": "uint256"
        },
        {
          "internalType": "string",
          "name": "signature",
          "type": "string"
        }
      ],
      "stateMutability": "view",
      "type": "function",
      "constant": true
    },
    {
      "inputs": [],
      "name": "OraclesCount",
      "outputs": [
        {
          "internalType": "uint256",
          "name": "",
          "type": "uint256"
        }
      ],
      "stateMutability": "view",
      "type": "function",
      "constant": true
    },
    {
      "inputs": [],
      "name": "Unlocked",
      "outputs": [
        {
          "internalType": "uint256",
          "name": "",
          "type": "uint256"
        }
      ],
      "stateMutability": "view",
      "type": "function",
      "constant": true
    },
    {
      "inputs": [],
      "name": "acceptOwnership",
      "outputs": [],
      "stateMutability": "nonpayable",
      "type": "function"
    },
    {
      "inputs": [],
      "name": "creator",
      "outputs": [
        {
          "internalType": "address",
          "name": "",
          "type": "address"
        }
      ],
      "stateMutability": "view",
      "type": "function",
      "constant": true
    },
    {
      "inputs": [],
      "name": "owner",
      "outputs": [
        {
          "internalType": "address",
          "name": "",
          "type": "address"
        }
      ],
      "stateMutability": "view",
      "type": "function",
      "constant": true
    },
    {
      "inputs": [],
      "name": "pause",
      "outputs": [],
      "stateMutability": "nonpayable",
      "type": "function"
    },
    {
      "inputs": [],
      "name": "paused",
      "outputs": [
        {
          "internalType": "bool",
          "name": "",
          "type": "bool"
        }
      ],
      "stateMutability": "view",
      "type": "function",
      "constant": true
    },
    {
      "inputs": [
        {
          "internalType": "address",
          "name": "newOwner",
          "type": "address"
        }
      ],
      "name": "proposeOwner",
      "outputs": [],
      "stateMutability": "nonpayable",
      "type": "function"
    },
    {
      "inputs": [],
      "name": "token",
      "outputs": [
        {
          "internalType": "contract ERC20",
          "name": "",
          "type": "address"
        }
      ],
      "stateMutability": "view",
      "type": "function",
      "constant": true
    },
    {
      "inputs": [
        {
          "internalType": "address",
          "name": "newOwner",
          "type": "address"
        }
      ],
      "name": "transferOwnership",
      "outputs": [],
      "stateMutability": "nonpayable",
      "type": "function"
    },
    {
      "inputs": [],
      "name": "unpause",
      "outputs": [],
      "stateMutability": "nonpayable",
      "type": "function"
    },
    {
      "inputs": [],
      "name": "getFeeToken",
      "outputs": [
        {
          "internalType": "address",
          "name": "",
          "type": "address"
        }
      ],
      "stateMutability": "pure",
      "type": "function",
      "constant": true
    },
    {
      "inputs": [
        {
          "internalType": "address[]",
          "name": "_oracles",
          "type": "address[]"
        }
      ],
      "name": "setOracles",
      "outputs": [],
      "stateMutability": "nonpayable",
      "type": "function"
    },
    {
      "inputs": [
        {
          "internalType": "string",
          "name": "_signature",
          "type": "string"
        }
      ],
      "name": "vote",
      "outputs": [
        {
          "internalType": "bool",
          "name": "success",
          "type": "bool"
        }
      ],
      "stateMutability": "nonpayable",
      "type": "function"
    },
    {
      "inputs": [
        {
          "internalType": "address",
          "name": "_receiver",
          "type": "address"
        },
        {
          "internalType": "uint256",
          "name": "_value",
          "type": "uint256"
        }
      ],
      "name": "lock",
      "outputs": [
        {
          "internalType": "bool",
          "name": "success",
          "type": "bool"
        }
      ],
      "stateMutability": "nonpayable",
      "type": "function"
    },
    {
      "inputs": [],
      "name": "withdraw",
      "outputs": [
        {
          "internalType": "bool",
          "name": "success",
          "type": "bool"
        }
      ],
      "stateMutability": "nonpayable",
      "type": "function"
    }
  ],
  "bytecode": "0x60806040525f600755348015610013575f80fd5b505f805f6101000a81548160ff021916908315150217905550335f60016101000a81548173ffffffffffffffffffffffffffffffffffffffff021916908373ffffffffffffffffffffffffffffffffffffffff1602179055503360015f6101000a81548173ffffffffffffffffffffffffffffffffffffffff021916908373ffffffffffffffffffffffffffffffffffffffff1602179055503360065f6101000a81548173ffffffffffffffffffffffffffffffffffffffff021916908373ffffffffffffffffffffffffffffffffffffffff16021790555073e6467c6ab4a911a5a6c540b311c38f888ed3c36260035f6101000a81548173ffffffffffffffffffffffffffffffffffffffff021916908373ffffffffffffffffffffffffffffffffffffffff1602179055506125378061014d5f395ff3fe608060405234801561000f575f80fd5b5060043610610109575f3560e01c80638456cb59116100a0578063b5ed298a1161006f578063b5ed298a1461025d578063ca709a2514610279578063f2fde38b14610297578063fc0c546a146102b3578063fc36e15b146102d157610109565b80638456cb59146101fb5780638da5cb5b1461020557806396fe623514610223578063ae9b71af1461024157610109565b80633ccfd60b116100dc5780633ccfd60b146101ab5780633f4ba83a146101c95780635c975abb146101d357806379ba5097146101f157610109565b8063014cf7dd1461010d57806302d05d3f1461013f57806319aad3711461015d578063282d3fdf1461017b575b5f80fd5b6101276004803603810190610122919061162d565b610301565b60405161013693929190611730565b60405180910390f35b6101476103cc565b604051610154919061176c565b60405180910390f35b6101656103f1565b6040516101729190611785565b60405180910390f35b610195600480360381019061019091906117c8565b6103f7565b6040516101a29190611820565b60405180910390f35b6101b3610677565b6040516101c09190611820565b60405180910390f35b6101d16109c6565b005b6101db610aad565b6040516101e89190611820565b60405180910390f35b6101f9610ac1565b005b610203610c8f565b005b61020d610d77565b60405161021a919061176c565b60405180910390f35b61022b610d9f565b6040516102389190611785565b60405180910390f35b61025b6004803603810190610256919061189a565b610da5565b005b610277600480360381019061027291906118e5565b610fd8565b005b610281611193565b60405161028e919061176c565b60405180910390f35b6102b160048036038101906102ac91906118e5565b6111ae565b005b6102bb611369565b6040516102c8919061196b565b60405180910390f35b6102eb60048036038101906102e691906119d9565b61138e565b6040516102f89190611820565b60405180910390f35b6004602052805f5260405f205f91509050805f015f9054906101000a900473ffffffffffffffffffffffffffffffffffffffff169080600101549080600201805461034b90611a51565b80601f016020809104026020016040519081016040528092919081815260200182805461037790611a51565b80156103c25780601f10610399576101008083540402835291602001916103c2565b820191905f5260205f20905b8154815290600101906020018083116103a557829003601f168201915b5050505050905083565b60065f9054906101000a900473ffffffffffffffffffffffffffffffffffffffff1681565b60075481565b5f60015f9054906101000a900473ffffffffffffffffffffffffffffffffffffffff1673ffffffffffffffffffffffffffffffffffffffff163373ffffffffffffffffffffffffffffffffffffffff1614610487576040517f08c379a000000000000000000000000000000000000000000000000000000000815260040161047e90611acb565b60405180910390fd5b5f8054906101000a900460ff16156104d4576040517f08c379a00000000000000000000000000000000000000000000000000000000081526004016104cb90611b33565b60405180910390fd5b60035f9054906101000a900473ffffffffffffffffffffffffffffffffffffffff1673ffffffffffffffffffffffffffffffffffffffff166323b872dd3330856040518463ffffffff1660e01b815260040161053293929190611b51565b6020604051808303815f875af115801561054e573d5f803e3d5ffd5b505050506040513d601f19601f820116820180604052508101906105729190611bb0565b506105c58260085f8673ffffffffffffffffffffffffffffffffffffffff1673ffffffffffffffffffffffffffffffffffffffff1681526020019081526020015f205f015461153b90919063ffffffff16565b60085f8573ffffffffffffffffffffffffffffffffffffffff1673ffffffffffffffffffffffffffffffffffffffff1681526020019081526020015f205f01819055503073ffffffffffffffffffffffffffffffffffffffff163373ffffffffffffffffffffffffffffffffffffffff167fddf252ad1be2c89b69c2b068fc378daa952ba7f163c4a11628f55a4df523b3ef846040516106659190611785565b60405180910390a36001905092915050565b5f805f9054906101000a900460ff16156106c6576040517f08c379a00000000000000000000000000000000000000000000000000000000081526004016106bd90611b33565b60405180910390fd5b5f6007541161070a576040517f08c379a000000000000000000000000000000000000000000000000000000000815260040161070190611c25565b60405180910390fd5b5f60085f3373ffffffffffffffffffffffffffffffffffffffff1673ffffffffffffffffffffffffffffffffffffffff1681526020019081526020015f205f015490505f811161078f576040517f08c379a000000000000000000000000000000000000000000000000000000000815260040161078690611c8d565b60405180910390fd5b6107e18160085f3373ffffffffffffffffffffffffffffffffffffffff1673ffffffffffffffffffffffffffffffffffffffff1681526020019081526020015f205f015461159390919063ffffffff16565b60085f3373ffffffffffffffffffffffffffffffffffffffff1673ffffffffffffffffffffffffffffffffffffffff1681526020019081526020015f205f018190555060035f9054906101000a900473ffffffffffffffffffffffffffffffffffffffff1673ffffffffffffffffffffffffffffffffffffffff166323b872dd3033846040518463ffffffff1660e01b815260040161088293929190611b51565b6020604051808303815f875af115801561089e573d5f803e3d5ffd5b505050506040513d601f19601f820116820180604052508101906108c29190611bb0565b506109158160085f3373ffffffffffffffffffffffffffffffffffffffff1673ffffffffffffffffffffffffffffffffffffffff1681526020019081526020015f205f015461153b90919063ffffffff16565b60085f3373ffffffffffffffffffffffffffffffffffffffff1673ffffffffffffffffffffffffffffffffffffffff1681526020019081526020015f20600101819055503373ffffffffffffffffffffffffffffffffffffffff163073ffffffffffffffffffffffffffffffffffffffff167fddf252ad1be2c89b69c2b068fc378daa952ba7f163c4a11628f55a4df523b3ef836040516109b69190611785565b60405180910390a3600191505090565b5f60019054906101000a900473ffffffffffffffffffffffffffffffffffffffff1673ffffffffffffffffffffffffffffffffffffffff163373ffffffffffffffffffffffffffffffffffffffff1614610a55576040517f08c379a0000000000000000000000000000000000000000000000000000000008152600401610a4c90611d1b565b60405180910390fd5b5f805f6101000a81548160ff0219169083151502179055507f5db9ee0a495bf2e6ff9c91a7834c1ba4fdd244a5e8aa4e537bd38aeae4b073aa610a966115eb565b604051610aa3919061176c565b60405180910390a1565b5f805f9054906101000a900460ff16905090565b60025f9054906101000a900473ffffffffffffffffffffffffffffffffffffffff1673ffffffffffffffffffffffffffffffffffffffff163373ffffffffffffffffffffffffffffffffffffffff1614610b50576040517f08c379a0000000000000000000000000000000000000000000000000000000008152600401610b4790611da9565b60405180910390fd5b60025f9054906101000a900473ffffffffffffffffffffffffffffffffffffffff1673ffffffffffffffffffffffffffffffffffffffff1660015f9054906101000a900473ffffffffffffffffffffffffffffffffffffffff1673ffffffffffffffffffffffffffffffffffffffff167f8be0079c531659141344cd1fd0a4f28419497f9722a3daafe3b4186f6b6457e060405160405180910390a360025f9054906101000a900473ffffffffffffffffffffffffffffffffffffffff1660015f6101000a81548173ffffffffffffffffffffffffffffffffffffffff021916908373ffffffffffffffffffffffffffffffffffffffff1602179055505f60025f6101000a81548173ffffffffffffffffffffffffffffffffffffffff021916908373ffffffffffffffffffffffffffffffffffffffff160217905550565b5f60019054906101000a900473ffffffffffffffffffffffffffffffffffffffff1673ffffffffffffffffffffffffffffffffffffffff163373ffffffffffffffffffffffffffffffffffffffff1614610d1e576040517f08c379a0000000000000000000000000000000000000000000000000000000008152600401610d1590611d1b565b60405180910390fd5b60015f806101000a81548160ff0219169083151502179055507f62e78cea01bee320cd4e420270b5ea74000d11b0c9f74754ebdbfc544b05a258610d606115eb565b604051610d6d919061176c565b60405180910390a1565b5f60015f9054906101000a900473ffffffffffffffffffffffffffffffffffffffff16905090565b60055481565b60015f9054906101000a900473ffffffffffffffffffffffffffffffffffffffff1673ffffffffffffffffffffffffffffffffffffffff163373ffffffffffffffffffffffffffffffffffffffff1614610e34576040517f08c379a0000000000000000000000000000000000000000000000000000000008152600401610e2b90611acb565b60405180910390fd5b60065f9054906101000a900473ffffffffffffffffffffffffffffffffffffffff1673ffffffffffffffffffffffffffffffffffffffff163373ffffffffffffffffffffffffffffffffffffffff1614610ec3576040517f08c379a0000000000000000000000000000000000000000000000000000000008152600401610eba90611e11565b60405180910390fd5b5f600781905550818190506005819055505f5b82829050811015610fd3576040518060600160405280848484818110610eff57610efe611e2f565b5b9050602002016020810190610f1491906118e5565b73ffffffffffffffffffffffffffffffffffffffff1681526020016001815260200160405180602001604052805f81525081525060045f8381526020019081526020015f205f820151815f015f6101000a81548173ffffffffffffffffffffffffffffffffffffffff021916908373ffffffffffffffffffffffffffffffffffffffff160217905550602082015181600101556040820151816002019081610fbc919061201d565b509050508080610fcb90612119565b915050610ed6565b505050565b60015f9054906101000a900473ffffffffffffffffffffffffffffffffffffffff1673ffffffffffffffffffffffffffffffffffffffff163373ffffffffffffffffffffffffffffffffffffffff1614611067576040517f08c379a000000000000000000000000000000000000000000000000000000000815260040161105e90611acb565b60405180910390fd5b5f73ffffffffffffffffffffffffffffffffffffffff168173ffffffffffffffffffffffffffffffffffffffff16036110d5576040517f08c379a00000000000000000000000000000000000000000000000000000000081526004016110cc906121d0565b60405180910390fd5b8073ffffffffffffffffffffffffffffffffffffffff1660015f9054906101000a900473ffffffffffffffffffffffffffffffffffffffff1673ffffffffffffffffffffffffffffffffffffffff167f331440cf4fb62d167f4b2040f3fb69db7bd23772dee471b39826c42f02f2c70860405160405180910390a38060025f6101000a81548173ffffffffffffffffffffffffffffffffffffffff021916908373ffffffffffffffffffffffffffffffffffffffff16021790555050565b5f73e6467c6ab4a911a5a6c540b311c38f888ed3c362905090565b60015f9054906101000a900473ffffffffffffffffffffffffffffffffffffffff1673ffffffffffffffffffffffffffffffffffffffff163373ffffffffffffffffffffffffffffffffffffffff161461123d576040517f08c379a000000000000000000000000000000000000000000000000000000000815260040161123490611acb565b60405180910390fd5b5f73ffffffffffffffffffffffffffffffffffffffff168173ffffffffffffffffffffffffffffffffffffffff16036112ab576040517f08c379a00000000000000000000000000000000000000000000000000000000081526004016112a2906121d0565b60405180910390fd5b8073ffffffffffffffffffffffffffffffffffffffff1660015f9054906101000a900473ffffffffffffffffffffffffffffffffffffffff1673ffffffffffffffffffffffffffffffffffffffff167f331440cf4fb62d167f4b2040f3fb69db7bd23772dee471b39826c42f02f2c70860405160405180910390a38060025f6101000a81548173ffffffffffffffffffffffffffffffffffffffff021916908373ffffffffffffffffffffffffffffffffffffffff16021790555050565b60035f9054906101000a900473ffffffffffffffffffffffffffffffffffffffff1681565b5f805f9054906101000a900460ff16156113dd576040517f08c379a00000000000000000000000000000000000000000000000000000000081526004016113d490611b33565b60405180910390fd5b5f805f5b6005548110156114c4573373ffffffffffffffffffffffffffffffffffffffff1660045f8381526020019081526020015f205f015f9054906101000a900473ffffffffffffffffffffffffffffffffffffffff1673ffffffffffffffffffffffffffffffffffffffff160361147957858560045f8481526020019081526020015f2060020191826114739291906121f8565b50600191505b5f60045f8381526020019081526020015f20600201805461149990611a51565b905011156114b1576001836114ae91906122c5565b92505b80806114bc90612119565b9150506113e1565b5080611505576040517f08c379a00000000000000000000000000000000000000000000000000000000081526004016114fc90612342565b60405180910390fd5b600360055460026115169190612360565b61152091906123ce565b821061152f5760016007819055505b60019250505092915050565b5f818361154891906122c5565b90508281101561158d576040517f08c379a000000000000000000000000000000000000000000000000000000000815260040161158490612448565b60405180910390fd5b92915050565b5f828211156115d7576040517f08c379a00000000000000000000000000000000000000000000000000000000081526004016115ce906124b0565b60405180910390fd5b81836115e391906124ce565b905092915050565b5f33905090565b5f80fd5b5f80fd5b5f819050919050565b61160c816115fa565b8114611616575f80fd5b50565b5f8135905061162781611603565b92915050565b5f60208284031215611642576116416115f2565b5b5f61164f84828501611619565b91505092915050565b5f73ffffffffffffffffffffffffffffffffffffffff82169050919050565b5f61168182611658565b9050919050565b61169181611677565b82525050565b6116a0816115fa565b82525050565b5f81519050919050565b5f82825260208201905092915050565b5f5b838110156116dd5780820151818401526020810190506116c2565b5f8484015250505050565b5f601f19601f8301169050919050565b5f611702826116a6565b61170c81856116b0565b935061171c8185602086016116c0565b611725816116e8565b840191505092915050565b5f6060820190506117435f830186611688565b6117506020830185611697565b818103604083015261176281846116f8565b9050949350505050565b5f60208201905061177f5f830184611688565b92915050565b5f6020820190506117985f830184611697565b92915050565b6117a781611677565b81146117b1575f80fd5b50565b5f813590506117c28161179e565b92915050565b5f80604083850312156117de576117dd6115f2565b5b5f6117eb858286016117b4565b92505060206117fc85828601611619565b9150509250929050565b5f8115159050919050565b61181a81611806565b82525050565b5f6020820190506118335f830184611811565b92915050565b5f80fd5b5f80fd5b5f80fd5b5f8083601f84011261185a57611859611839565b5b8235905067ffffffffffffffff8111156118775761187661183d565b5b60208301915083602082028301111561189357611892611841565b5b9250929050565b5f80602083850312156118b0576118af6115f2565b5b5f83013567ffffffffffffffff8111156118cd576118cc6115f6565b5b6118d985828601611845565b92509250509250929050565b5f602082840312156118fa576118f96115f2565b5b5f611907848285016117b4565b91505092915050565b5f819050919050565b5f61193361192e61192984611658565b611910565b611658565b9050919050565b5f61194482611919565b9050919050565b5f6119558261193a565b9050919050565b6119658161194b565b82525050565b5f60208201905061197e5f83018461195c565b92915050565b5f8083601f84011261199957611998611839565b5b8235905067ffffffffffffffff8111156119b6576119b561183d565b5b6020830191508360018202830111156119d2576119d1611841565b5b9250929050565b5f80602083850312156119ef576119ee6115f2565b5b5f83013567ffffffffffffffff811115611a0c57611a0b6115f6565b5b611a1885828601611984565b92509250509250929050565b7f4e487b71000000000000000000000000000000000000000000000000000000005f52602260045260245ffd5b5f6002820490506001821680611a6857607f821691505b602082108103611a7b57611a7a611a24565b5b50919050565b7f4f776e61626c653a2063616c6c6572206973206e6f7420746865206f776e65725f82015250565b5f611ab56020836116b0565b9150611ac082611a81565b602082019050919050565b5f6020820190508181035f830152611ae281611aa9565b9050919050565b7f5061757361626c653a20706175736564000000000000000000000000000000005f82015250565b5f611b1d6010836116b0565b9150611b2882611ae9565b602082019050919050565b5f6020820190508181035f830152611b4a81611b11565b9050919050565b5f606082019050611b645f830186611688565b611b716020830185611688565b611b7e6040830184611697565b949350505050565b611b8f81611806565b8114611b99575f80fd5b50565b5f81519050611baa81611b86565b92915050565b5f60208284031215611bc557611bc46115f2565b5b5f611bd284828501611b9c565b91505092915050565b7f49742773206e6f74207468652074696d652079657400000000000000000000005f82015250565b5f611c0f6015836116b0565b9150611c1a82611bdb565b602082019050919050565b5f6020820190508181035f830152611c3c81611c03565b9050919050565b7f4e6f206c6f636b65642076616c756500000000000000000000000000000000005f82015250565b5f611c77600f836116b0565b9150611c8282611c43565b602082019050919050565b5f6020820190508181035f830152611ca481611c6b565b9050919050565b7f5061757361626c653a2063616c6c6572206973206e6f742074686520706175735f8201527f6572000000000000000000000000000000000000000000000000000000000000602082015250565b5f611d056022836116b0565b9150611d1082611cab565b604082019050919050565b5f6020820190508181035f830152611d3281611cf9565b9050919050565b7f4f776e61626c653a2063616c6c6572206973206e6f74207468652073756363655f8201527f73736f7200000000000000000000000000000000000000000000000000000000602082015250565b5f611d936024836116b0565b9150611d9e82611d39565b604082019050919050565b5f6020820190508181035f830152611dc081611d87565b9050919050565b7f6e6f7420617574686f72697a65640000000000000000000000000000000000005f82015250565b5f611dfb600e836116b0565b9150611e0682611dc7565b602082019050919050565b5f6020820190508181035f830152611e2881611def565b9050919050565b7f4e487b71000000000000000000000000000000000000000000000000000000005f52603260045260245ffd5b7f4e487b71000000000000000000000000000000000000000000000000000000005f52604160045260245ffd5b5f819050815f5260205f209050919050565b5f6020601f8301049050919050565b5f82821b905092915050565b5f60088302611ee57fffffffffffffffffffffffffffffffffffffffffffffffffffffffffffffffff82611eaa565b611eef8683611eaa565b95508019841693508086168417925050509392505050565b5f611f21611f1c611f17846115fa565b611910565b6115fa565b9050919050565b5f819050919050565b611f3a83611f07565b611f4e611f4682611f28565b848454611eb6565b825550505050565b5f90565b611f62611f56565b611f6d818484611f31565b505050565b5b81811015611f9057611f855f82611f5a565b600181019050611f73565b5050565b601f821115611fd557611fa681611e89565b611faf84611e9b565b81016020851015611fbe578190505b611fd2611fca85611e9b565b830182611f72565b50505b505050565b5f82821c905092915050565b5f611ff55f1984600802611fda565b1980831691505092915050565b5f61200d8383611fe6565b9150826002028217905092915050565b612026826116a6565b67ffffffffffffffff81111561203f5761203e611e5c565b5b6120498254611a51565b612054828285611f94565b5f60209050601f831160018114612085575f8415612073578287015190505b61207d8582612002565b8655506120e4565b601f19841661209386611e89565b5f5b828110156120ba57848901518255600182019150602085019450602081019050612095565b868310156120d757848901516120d3601f891682611fe6565b8355505b6001600288020188555050505b505050505050565b7f4e487b71000000000000000000000000000000000000000000000000000000005f52601160045260245ffd5b5f612123826115fa565b91507fffffffffffffffffffffffffffffffffffffffffffffffffffffffffffffffff8203612155576121546120ec565b5b600182019050919050565b7f4f776e61626c653a206e6577206f776e657220697320746865207a65726f20615f8201527f6464726573730000000000000000000000000000000000000000000000000000602082015250565b5f6121ba6026836116b0565b91506121c582612160565b604082019050919050565b5f6020820190508181035f8301526121e7816121ae565b9050919050565b5f82905092915050565b61220283836121ee565b67ffffffffffffffff81111561221b5761221a611e5c565b5b6122258254611a51565b612230828285611f94565b5f601f83116001811461225d575f841561224b578287013590505b6122558582612002565b8655506122bc565b601f19841661226b86611e89565b5f5b828110156122925784890135825560018201915060208501945060208101905061226d565b868310156122af57848901356122ab601f891682611fe6565b8355505b6001600288020188555050505b50505050505050565b5f6122cf826115fa565b91506122da836115fa565b92508282019050808211156122f2576122f16120ec565b5b92915050565b7f4e6f7420616c6c6f77656420746f20766f7465000000000000000000000000005f82015250565b5f61232c6013836116b0565b9150612337826122f8565b602082019050919050565b5f6020820190508181035f83015261235981612320565b9050919050565b5f61236a826115fa565b9150612375836115fa565b9250828202612383816115fa565b9150828204841483151761239a576123996120ec565b5b5092915050565b7f4e487b71000000000000000000000000000000000000000000000000000000005f52601260045260245ffd5b5f6123d8826115fa565b91506123e3836115fa565b9250826123f3576123f26123a1565b5b828204905092915050565b7f536166654d6174683a206164646974696f6e206f766572666c6f7700000000005f82015250565b5f612432601b836116b0565b915061243d826123fe565b602082019050919050565b5f6020820190508181035f83015261245f81612426565b9050919050565b7f536166654d6174683a207375627472616374696f6e206f766572666c6f7700005f82015250565b5f61249a601e836116b0565b91506124a582612466565b602082019050919050565b5f6020820190508181035f8301526124c78161248e565b9050919050565b5f6124d8826115fa565b91506124e3836115fa565b92508282039050818111156124fb576124fa6120ec565b5b9291505056fea2646970667358221220dafb070f07e50166f1835da66ce0639d8179923cfbecc1d4fe3d065ce4e3bd4064736f6c63430008150033",
  "immutableReferences": {},
  "source": "// SPDX-License-Identifier: MIT\r\npragma solidity ^0.8.0;\r\n\r\nimport \"./SafeMath.sol\";\r\nimport \"./ERC20.sol\";\r\nimport \"./Pausable.sol\";\r\nimport \"./Ownable.sol\";\r\n\r\ncontract Inheritance is Pausable, Ownable {\r\n\r\n    using SafeMath for uint256;\r\n\r\n    address constant TOKEN = 0xE6467C6AB4A911a5A6C540b311C38f888Ed3C362;\r\n\r\n    ERC20 public token;\r\n\r\n    struct Oracle {\r\n        address account;\r\n        uint256 vote;\r\n        string signature;\r\n    }\r\n\r\n    mapping(uint => Oracle) public Oracles;\r\n\r\n    uint256 public OraclesCount;\r\n\r\n    address public creator;\r\n\r\n    uint256 public Unlocked = 0;\r\n\r\n    event Transfer(address indexed from, address indexed to, uint256 value);\r\n\r\n    struct Account {\r\n        uint256 locked;\r\n        uint256 paid;\r\n    }\r\n\r\n    mapping(address => Account) accounts;\r\n\r\n    constructor() {\r\n        creator = msg.sender;\r\n        token = ERC20(TOKEN);\r\n    }\r\n\r\n// function getFeeToken() public pure returns (address) {\r\n//     return TOKEN;\r\n// }\r\n    function getFeeToken() public pure returns (address) {\r\n        return TOKEN;\r\n    }\r\n\r\n    function setOracles(address[] calldata _oracles) public onlyOwner {\r\n        require(msg.sender == creator, \"not authorized\");\r\n\r\n        Unlocked = 0;\r\n        OraclesCount = _oracles.length;\r\n\r\n        for (uint256 i = 0; i < _oracles.length; i++){\r\n            Oracles[i] = Oracle(_oracles[i], 1, \"\");\r\n        }\r\n    }\r\n\r\n    function vote(string calldata _signature) whenNotPaused public returns (bool success) {\r\n        uint256 v = 0;\r\n        bool found = false;\r\n        for (uint256 i = 0; i < OraclesCount; i++){\r\n            if (Oracles[i].account == msg.sender) {\r\n                Oracles[i].signature = _signature;\r\n                found = true;\r\n            }\r\n            if (bytes(Oracles[i].signature).length > 0) {\r\n                v = v + 1;\r\n            }\r\n        }\r\n        require(found, \"Not allowed to vote\");\r\n        if (v >= 2 * OraclesCount / 3) {\r\n            Unlocked = 1;\r\n        }\r\n\r\n        return true;\r\n    }\r\n\r\n    function lock(address _receiver, uint256 _value) onlyOwner whenNotPaused public returns (bool success) {\r\n        token.transferFrom(msg.sender, address(this), _value);\r\n\r\n        accounts[_receiver].locked = accounts[_receiver].locked.add(_value);\r\n\r\n        emit Transfer(msg.sender, address(this), _value);\r\n        return true;\r\n    }\r\n\r\n    function withdraw() whenNotPaused public returns (bool success) {\r\n        require(Unlocked > 0, \"It's not the time yet\");\r\n\r\n        uint256 amount = accounts[msg.sender].locked;\r\n        require(amount > 0, \"No locked value\");\r\n\r\n        accounts[msg.sender].locked = accounts[msg.sender].locked.sub(amount);\r\n        token.transferFrom(address(this), msg.sender, amount);\r\n        accounts[msg.sender].paid = accounts[msg.sender].locked.add(amount);\r\n\r\n        emit Transfer(address(this), msg.sender, amount);\r\n        return true;\r\n    }\r\n}\r\n",
  "sourcePath": "D:\\Coding\\WillInheritance\\inheritable\\contracts\\Inheritance.sol",
  "compiler": {
    "name": "solc",
    "version": "0.8.21+commit.d9974bed.Emscripten.clang"
  },
  "schemaVersion": "3.4.16",
  "updatedAt": "2024-04-18T07:38:58.814Z",
  "networkType": "ethereum",
  "devdoc": {
    "kind": "dev",
    "methods": {},
    "version": 1
  },
  "userdoc": {
    "kind": "user",
    "methods": {},
    "version": 1
  }
}