{
  "contractName": "WeaveHash",
  "abi": [
    {
      "inputs": [],
      "stateMutability": "nonpayable",
      "type": "constructor"
    },
    {
      "anonymous": false,
      "inputs": [
        {
          "indexed": true,
          "internalType": "address",
          "name": "sender",
          "type": "address"
        },
        {
          "indexed": false,
          "internalType": "uint256",
          "name": "id",
          "type": "uint256"
        },
        {
          "indexed": false,
          "internalType": "string",
          "name": "hash",
          "type": "string"
        },
        {
          "indexed": false,
          "internalType": "string",
          "name": "metadata",
          "type": "string"
        }
      ],
      "name": "NewHash",
      "type": "event"
    },
    {
      "anonymous": false,
      "inputs": [
        {
          "indexed": true,
          "internalType": "address",
          "name": "oldOwner",
          "type": "address"
        },
        {
          "indexed": true,
          "internalType": "address",
          "name": "newOwner",
          "type": "address"
        }
      ],
      "name": "OwnershipTransferred",
      "type": "event"
    },
    {
      "inputs": [],
      "name": "Count",
      "outputs": [
        {
          "internalType": "uint256",
          "name": "",
          "type": "uint256"
        }
      ],
      "stateMutability": "view",
      "type": "function",
      "constant": true
    },
    {
      "inputs": [],
      "name": "creator",
      "outputs": [
        {
          "internalType": "address",
          "name": "",
          "type": "address"
        }
      ],
      "stateMutability": "view",
      "type": "function",
      "constant": true
    },
    {
      "inputs": [
        {
          "internalType": "uint256",
          "name": "",
          "type": "uint256"
        }
      ],
      "name": "hashes",
      "outputs": [
        {
          "internalType": "uint256",
          "name": "id",
          "type": "uint256"
        },
        {
          "internalType": "string",
          "name": "hash",
          "type": "string"
        },
        {
          "internalType": "string",
          "name": "metadata",
          "type": "string"
        }
      ],
      "stateMutability": "view",
      "type": "function",
      "constant": true
    },
    {
      "inputs": [],
      "name": "owner",
      "outputs": [
        {
          "internalType": "address",
          "name": "",
          "type": "address"
        }
      ],
      "stateMutability": "view",
      "type": "function",
      "constant": true
    },
    {
      "inputs": [
        {
          "internalType": "address",
          "name": "newOwner",
          "type": "address"
        }
      ],
      "name": "transferOwnership",
      "outputs": [],
      "stateMutability": "nonpayable",
      "type": "function"
    },
    {
      "inputs": [
        {
          "internalType": "uint256",
          "name": "id",
          "type": "uint256"
        },
        {
          "internalType": "string",
          "name": "hash",
          "type": "string"
        },
        {
          "internalType": "string",
          "name": "metadata",
          "type": "string"
        }
      ],
      "name": "storeHash",
      "outputs": [],
      "stateMutability": "nonpayable",
      "type": "function"
    },
    {
      "inputs": [
        {
          "internalType": "uint256",
          "name": "id",
          "type": "uint256"
        }
      ],
      "name": "readHash",
      "outputs": [
        {
          "components": [
            {
              "internalType": "uint256",
              "name": "id",
              "type": "uint256"
            },
            {
              "internalType": "string",
              "name": "hash",
              "type": "string"
            },
            {
              "internalType": "string",
              "name": "metadata",
              "type": "string"
            }
          ],
          "internalType": "struct WeaveHash.DataHash",
          "name": "",
          "type": "tuple"
        }
      ],
      "stateMutability": "view",
      "type": "function",
      "constant": true
    },
    {
      "inputs": [],
      "name": "readHashes",
      "outputs": [
        {
          "internalType": "string[]",
          "name": "",
          "type": "string[]"
        }
      ],
      "stateMutability": "view",
      "type": "function",
      "constant": true
    },
    {
      "inputs": [],
      "name": "resetHashes",
      "outputs": [],
      "stateMutability": "nonpayable",
      "type": "function"
    }
  ],
  "bytecode": "0x60806040525f600255348015610013575f80fd5b50335f806101000a81548173ffffffffffffffffffffffffffffffffffffffff021916908373ffffffffffffffffffffffffffffffffffffffff1602179055503360015f6101000a81548173ffffffffffffffffffffffffffffffffffffffff021916908373ffffffffffffffffffffffffffffffffffffffff1602179055506115da806100a05f395ff3fe608060405234801561000f575f80fd5b5060043610610091575f3560e01c8063501895ae11610064578063501895ae1461010957806352a4ca791461013b5780638da5cb5b1461015957806393a8333e14610177578063f2fde38b1461019557610091565b806302d05d3f146100955780631b314339146100b35780633b4c5a50146100e35780633dc9dfe6146100ff575b5f80fd5b61009d6101b1565b6040516100aa9190610ad3565b60405180910390f35b6100cd60048036038101906100c89190610b30565b6101d6565b6040516100da9190610c48565b60405180910390f35b6100fd60048036038101906100f89190610d94565b61037f565b005b6101076104d6565b005b610123600480360381019061011e9190610b30565b6105c7565b60405161013293929190610e73565b60405180910390f35b6101436106f9565b6040516101509190610f71565b60405180910390f35b61016161083d565b60405161016e9190610ad3565b60405180910390f35b61017f610860565b60405161018c9190610f91565b60405180910390f35b6101af60048036038101906101aa9190610fd4565b610866565b005b60015f9054906101000a900473ffffffffffffffffffffffffffffffffffffffff1681565b6101de610a1c565b5f60035f8481526020019081526020015f205f015403610233576040517f08c379a000000000000000000000000000000000000000000000000000000000815260040161022a90611049565b60405180910390fd5b60035f8381526020019081526020015f206040518060600160405290815f820154815260200160018201805461026890611094565b80601f016020809104026020016040519081016040528092919081815260200182805461029490611094565b80156102df5780601f106102b6576101008083540402835291602001916102df565b820191905f5260205f20905b8154815290600101906020018083116102c257829003601f168201915b505050505081526020016002820180546102f890611094565b80601f016020809104026020016040519081016040528092919081815260200182805461032490611094565b801561036f5780601f106103465761010080835404028352916020019161036f565b820191905f5260205f20905b81548152906001019060200180831161035257829003601f168201915b5050505050815250509050919050565b5f8251116103c2576040517f08c379a00000000000000000000000000000000000000000000000000000000081526004016103b99061110e565b60405180910390fd5b5f815111610405576040517f08c379a00000000000000000000000000000000000000000000000000000000081526004016103fc90611176565b60405180910390fd5b60405180606001604052808481526020018381526020018281525060035f8581526020019081526020015f205f820151815f0155602082015181600101908161044e9190611331565b5060408201518160020190816104649190611331565b5090505060025f81548092919061047a9061142d565b91905055503373ffffffffffffffffffffffffffffffffffffffff167ff4cd95ddca6e386225c964af1b2620dc6ebe75da4ad92785708895765dbd1fc78484846040516104c993929190610e73565b60405180910390a2505050565b5f8054906101000a900473ffffffffffffffffffffffffffffffffffffffff1673ffffffffffffffffffffffffffffffffffffffff163373ffffffffffffffffffffffffffffffffffffffff1614610563576040517f08c379a000000000000000000000000000000000000000000000000000000000815260040161055a906114be565b60405180910390fd5b5f600190505b60025481116105bd5760035f8281526020019081526020015f205f8082015f9055600182015f6105999190610a3c565b600282015f6105a89190610a3c565b505080806105b59061142d565b915050610569565b505f600281905550565b6003602052805f5260405f205f91509050805f0154908060010180546105ec90611094565b80601f016020809104026020016040519081016040528092919081815260200182805461061890611094565b80156106635780601f1061063a57610100808354040283529160200191610663565b820191905f5260205f20905b81548152906001019060200180831161064657829003601f168201915b50505050509080600201805461067890611094565b80601f01602080910402602001604051908101604052809291908181526020018280546106a490611094565b80156106ef5780601f106106c6576101008083540402835291602001916106ef565b820191905f5260205f20905b8154815290600101906020018083116106d257829003601f168201915b5050505050905083565b60605f60025467ffffffffffffffff81111561071857610717610c70565b5b60405190808252806020026020018201604052801561074b57816020015b60608152602001906001900390816107365790505b5090505f600190505b60025481116108355760035f8281526020019081526020015f20600101805461077c90611094565b80601f01602080910402602001604051908101604052809291908181526020018280546107a890611094565b80156107f35780601f106107ca576101008083540402835291602001916107f3565b820191905f5260205f20905b8154815290600101906020018083116107d657829003601f168201915b50505050508260018361080691906114dc565b815181106108175761081661150f565b5b6020026020010181905250808061082d9061142d565b915050610754565b508091505090565b5f8054906101000a900473ffffffffffffffffffffffffffffffffffffffff1681565b60025481565b5f8054906101000a900473ffffffffffffffffffffffffffffffffffffffff1673ffffffffffffffffffffffffffffffffffffffff163373ffffffffffffffffffffffffffffffffffffffff16146108f3576040517f08c379a00000000000000000000000000000000000000000000000000000000081526004016108ea906114be565b60405180910390fd5b5f73ffffffffffffffffffffffffffffffffffffffff168173ffffffffffffffffffffffffffffffffffffffff1603610961576040517f08c379a000000000000000000000000000000000000000000000000000000000815260040161095890611586565b60405180910390fd5b8073ffffffffffffffffffffffffffffffffffffffff165f8054906101000a900473ffffffffffffffffffffffffffffffffffffffff1673ffffffffffffffffffffffffffffffffffffffff167f8be0079c531659141344cd1fd0a4f28419497f9722a3daafe3b4186f6b6457e060405160405180910390a3805f806101000a81548173ffffffffffffffffffffffffffffffffffffffff021916908373ffffffffffffffffffffffffffffffffffffffff16021790555050565b60405180606001604052805f815260200160608152602001606081525090565b508054610a4890611094565b5f825580601f10610a595750610a76565b601f0160209004905f5260205f2090810190610a759190610a79565b5b50565b5b80821115610a90575f815f905550600101610a7a565b5090565b5f73ffffffffffffffffffffffffffffffffffffffff82169050919050565b5f610abd82610a94565b9050919050565b610acd81610ab3565b82525050565b5f602082019050610ae65f830184610ac4565b92915050565b5f604051905090565b5f80fd5b5f80fd5b5f819050919050565b610b0f81610afd565b8114610b19575f80fd5b50565b5f81359050610b2a81610b06565b92915050565b5f60208284031215610b4557610b44610af5565b5b5f610b5284828501610b1c565b91505092915050565b610b6481610afd565b82525050565b5f81519050919050565b5f82825260208201905092915050565b5f5b83811015610ba1578082015181840152602081019050610b86565b5f8484015250505050565b5f601f19601f8301169050919050565b5f610bc682610b6a565b610bd08185610b74565b9350610be0818560208601610b84565b610be981610bac565b840191505092915050565b5f606083015f830151610c095f860182610b5b565b5060208301518482036020860152610c218282610bbc565b91505060408301518482036040860152610c3b8282610bbc565b9150508091505092915050565b5f6020820190508181035f830152610c608184610bf4565b905092915050565b5f80fd5b5f80fd5b7f4e487b71000000000000000000000000000000000000000000000000000000005f52604160045260245ffd5b610ca682610bac565b810181811067ffffffffffffffff82111715610cc557610cc4610c70565b5b80604052505050565b5f610cd7610aec565b9050610ce38282610c9d565b919050565b5f67ffffffffffffffff821115610d0257610d01610c70565b5b610d0b82610bac565b9050602081019050919050565b828183375f83830152505050565b5f610d38610d3384610ce8565b610cce565b905082815260208101848484011115610d5457610d53610c6c565b5b610d5f848285610d18565b509392505050565b5f82601f830112610d7b57610d7a610c68565b5b8135610d8b848260208601610d26565b91505092915050565b5f805f60608486031215610dab57610daa610af5565b5b5f610db886828701610b1c565b935050602084013567ffffffffffffffff811115610dd957610dd8610af9565b5b610de586828701610d67565b925050604084013567ffffffffffffffff811115610e0657610e05610af9565b5b610e1286828701610d67565b9150509250925092565b610e2581610afd565b82525050565b5f82825260208201905092915050565b5f610e4582610b6a565b610e4f8185610e2b565b9350610e5f818560208601610b84565b610e6881610bac565b840191505092915050565b5f606082019050610e865f830186610e1c565b8181036020830152610e988185610e3b565b90508181036040830152610eac8184610e3b565b9050949350505050565b5f81519050919050565b5f82825260208201905092915050565b5f819050602082019050919050565b5f610eea8383610bbc565b905092915050565b5f602082019050919050565b5f610f0882610eb6565b610f128185610ec0565b935083602082028501610f2485610ed0565b805f5b85811015610f5f5784840389528151610f408582610edf565b9450610f4b83610ef2565b925060208a01995050600181019050610f27565b50829750879550505050505092915050565b5f6020820190508181035f830152610f898184610efe565b905092915050565b5f602082019050610fa45f830184610e1c565b92915050565b610fb381610ab3565b8114610fbd575f80fd5b50565b5f81359050610fce81610faa565b92915050565b5f60208284031215610fe957610fe8610af5565b5b5f610ff684828501610fc0565b91505092915050565b7f48617368206e6f7420666f756e640000000000000000000000000000000000005f82015250565b5f611033600e83610e2b565b915061103e82610fff565b602082019050919050565b5f6020820190508181035f83015261106081611027565b9050919050565b7f4e487b71000000000000000000000000000000000000000000000000000000005f52602260045260245ffd5b5f60028204905060018216806110ab57607f821691505b6020821081036110be576110bd611067565b5b50919050565b7f456d7074792068617368000000000000000000000000000000000000000000005f82015250565b5f6110f8600a83610e2b565b9150611103826110c4565b602082019050919050565b5f6020820190508181035f830152611125816110ec565b9050919050565b7f456d707479206d657461646174610000000000000000000000000000000000005f82015250565b5f611160600e83610e2b565b915061116b8261112c565b602082019050919050565b5f6020820190508181035f83015261118d81611154565b9050919050565b5f819050815f5260205f209050919050565b5f6020601f8301049050919050565b5f82821b905092915050565b5f600883026111f07fffffffffffffffffffffffffffffffffffffffffffffffffffffffffffffffff826111b5565b6111fa86836111b5565b95508019841693508086168417925050509392505050565b5f819050919050565b5f61123561123061122b84610afd565b611212565b610afd565b9050919050565b5f819050919050565b61124e8361121b565b61126261125a8261123c565b8484546111c1565b825550505050565b5f90565b61127661126a565b611281818484611245565b505050565b5b818110156112a4576112995f8261126e565b600181019050611287565b5050565b601f8211156112e9576112ba81611194565b6112c3846111a6565b810160208510156112d2578190505b6112e66112de856111a6565b830182611286565b50505b505050565b5f82821c905092915050565b5f6113095f19846008026112ee565b1980831691505092915050565b5f61132183836112fa565b9150826002028217905092915050565b61133a82610b6a565b67ffffffffffffffff81111561135357611352610c70565b5b61135d8254611094565b6113688282856112a8565b5f60209050601f831160018114611399575f8415611387578287015190505b6113918582611316565b8655506113f8565b601f1984166113a786611194565b5f5b828110156113ce578489015182556001820191506020850194506020810190506113a9565b868310156113eb57848901516113e7601f8916826112fa565b8355505b6001600288020188555050505b505050505050565b7f4e487b71000000000000000000000000000000000000000000000000000000005f52601160045260245ffd5b5f61143782610afd565b91507fffffffffffffffffffffffffffffffffffffffffffffffffffffffffffffffff820361146957611468611400565b5b600182019050919050565b7f4e6f7420746865206f776e6572000000000000000000000000000000000000005f82015250565b5f6114a8600d83610e2b565b91506114b382611474565b602082019050919050565b5f6020820190508181035f8301526114d58161149c565b9050919050565b5f6114e682610afd565b91506114f183610afd565b925082820390508181111561150957611508611400565b5b92915050565b7f4e487b71000000000000000000000000000000000000000000000000000000005f52603260045260245ffd5b7f496e76616c6964206f776e6572206164647265737300000000000000000000005f82015250565b5f611570601583610e2b565b915061157b8261153c565b602082019050919050565b5f6020820190508181035f83015261159d81611564565b905091905056fea264697066735822122088e8a401e075dd6dadfdd8c38bb130db54c3a3132e2c83145cdc08f5f6dd1aa464736f6c63430008150033",
  "immutableReferences": {},
  "source": "// SPDX-License-Identifier: MIT\r\npragma solidity ^0.8.0;\r\n\r\ncontract WeaveHash {\r\n\r\n    struct DataHash {\r\n        uint256 id;\r\n        string hash;\r\n        string metadata;\r\n    }\r\n\r\n    address public owner;\r\n    address public creator;\r\n\r\n    uint256 public Count = 0;\r\n\r\n    mapping(uint256 => DataHash) public hashes;\r\n\r\n    event NewHash(address indexed sender, uint256 id, string hash, string metadata);\r\n    event OwnershipTransferred(address indexed oldOwner, address indexed newOwner);\r\n\r\n    constructor() {\r\n        owner = msg.sender;\r\n        creator = msg.sender;\r\n    }\r\n\r\n    modifier onlyOwner() {\r\n        require(msg.sender == owner, \"Not the owner\");\r\n        _;\r\n    }\r\n\r\n    function transferOwnership(address newOwner) public onlyOwner {\r\n        require(newOwner != address(0), \"Invalid owner address\");\r\n        emit OwnershipTransferred(owner, newOwner);\r\n        owner = newOwner;\r\n    }\r\n\r\n    function storeHash(uint256 id, string memory hash, string memory metadata) public {\r\n        require(bytes(hash).length > 0, \"Empty hash\");\r\n        require(bytes(metadata).length > 0, \"Empty metadata\");\r\n\r\n        hashes[id] = DataHash(id, hash, metadata);\r\n        Count++;\r\n\r\n        emit NewHash(msg.sender, id, hash, metadata);\r\n    }\r\n\r\n    function readHash(uint256 id) public view returns (DataHash memory) {\r\n        require(hashes[id].id != 0, \"Hash not found\");\r\n        return hashes[id];\r\n    }\r\n\r\n    function readHashes() public view returns (string[] memory) {\r\n        string[] memory allHashes = new string[](Count);\r\n        for (uint256 i = 1; i <= Count; i++) {\r\n            allHashes[i - 1] = hashes[i].hash;\r\n        }\r\n        return allHashes;\r\n    }\r\n\r\n    function resetHashes() public onlyOwner {\r\n        for (uint256 i = 1; i <= Count; i++) {\r\n            delete hashes[i];\r\n        }\r\n        Count = 0;\r\n    }\r\n}\r\n",
  "sourcePath": "D:\\Coding\\WillInheritance\\inheritable\\contracts\\WeaveHash.sol",
  "compiler": {
    "name": "solc",
    "version": "0.8.21+commit.d9974bed.Emscripten.clang"
  },
  "schemaVersion": "3.4.16",
  "updatedAt": "2024-04-18T07:38:57.874Z",
  "networkType": "ethereum",
  "devdoc": {
    "kind": "dev",
    "methods": {},
    "version": 1
  },
  "userdoc": {
    "kind": "user",
    "methods": {},
    "version": 1
  }
}